00COTAHIST.2022BOVESPA 20220505                                                                                                                                                                                                                      
012022050502A1AP34      010ADVANCE AUTODRN          R$  000000000634200000000063570000000006342000000000634600000000063570000000000000000000000000000003000000000000000004000000000000025385000000000000009999123100000010000000000000BRA1APBDR001110
012022050502A1BB34      010ABB LTD     DRN          R$  000000000371700000000037370000000003715000000000371700000000037150000000000000000000000585000003000000000000000055000000000000204451000000000000009999123100000010000000000000BRA1BBBDR009102
012022050522BPAN12      010BANCO PAN   BNS PRE N1   R$  000000000004400000000000450000000000040000000000004200000000000410000000000041000000000004200212000000000000433800000000000018412200000000000000009999123100000010000000000000BRBPANN01PR5100
012022050502PETR4       010PETROBRAS   PN      N2   R$  000000000318100000000032500000000003102000000000318900000000032010000000003201000000000320264928000000000099439900000000317120355500000000000000009999123100000010000000000000BRPETRACNPR6202
012022050502PETZ3       010PETZ        ON  ED  NM   R$  000000000159400000000015990000000001503000000000153300000000015170000000001517000000000151916133000000000005489000000000008417927400000000000000009999123100000010000000000000BRPETZACNOR2105
012022050502PFIZ34      010PFIZER      DRN          R$  000000000612300000000061630000000006005000000000610200000000060390000000006039000000000610000548000000000000206151000000001257991451000000000000009999123100000010000000000000BRPFIZBDR006148
012022050578BBDCF173    070BBDC    /EJ PN      N1000R$  000000000024000000000002400000000000240000000000024000000000002400000000000085000000000000000001000000000000000040000000000000009600000000000157602022061700000010000000000000BRBBDCACNPR8738
012022050578BBDCF175    070BBDC  FM/EJ ON      N1000R$  000000000002700000000000270000000000027000000000002700000000000270000000000000000000000000000006000000000000043427000000000001172529000000000158902022061700000010000000000000BRBBDCACNOR1738
012022050582CYREQ140    080CYREE       ON      NM000R$  000000000002400000000000300000000000021000000000002200000000000220000000000013000000000005000009000000000000009400000000000000215800000000000134402022052000000010000000000000BRCYREACNOR7136
012022050582CYREQ145    080CYREE  FM   ON      NM000R$  000000000003600000000000480000000000036000000000004500000000000390000000000000000000000004900015000000000000034700000000000001580800000000000139402022052000000010000000000000BRCYREACNOR7136
012022050582CYREQ150    080CYREE  FM   ON      NM000R$  000000000006200000000000660000000000060000000000006500000000000660000000000057000000000000000006000000000000011500000000000000751600000000000144402022052000000010000000000000BRCYREACNOR7136
99COTAHIST.2022BOVESPA 2022061500000943873      